:020000040800F2
:10000000682400202D020008611100081303000875
:100010002D0A000887080008AB1E00080000000039
:100020000000000000000000000000003D13000878
:100030008B080008000000009B020008E51500087E
:10004000470200084702000847020008470200086C
:10005000470200084702000847020008470200085C
:10006000470200084702000847020008470200084C
:10007000470200084702000847020008470200083C
:10008000470200084702000847020008470200082C
:10009000470200084702000847020008470200081C
:1000A000470200084702000847020008470200080C
:1000B00047020008470200085516000847020008DA
:1000C00047020008470200084702000847020008EC
:1000D00047020008511B000847020008D91B00080E
:1000E00047020008470200084702000847020008CC
:1000F00047020008470200084702000847020008BC
:1001000047020008470200084702000847020008AB
:100110004702000847020008470200088D16000841
:10012000470200084702000847020008470200088B
:1001300000F002F800F06BF80AA090E8000C82448E
:100140008344AAF10107DA4501D100F060F8AFF26B
:10015000090EBAE80F0013F0010F18BFFB1A43F0A5
:100160000103184788540000A85400000A444FF0C7
:10017000000C10F8013B13F0070408BF10F8014B06
:100180001D1108BF10F8015B641E05D010F8016B4B
:10019000641E01F8016BF9D113F0080F1EBF10F8AF
:1001A000014BAD1C0C1B09D16D1E58BF01F801CBD2
:1001B000FAD505E014F8016B01F8016B6D1EF9D555
:1001C0009142D6D37047000000230024002500266A
:1001D000103A28BF78C1FBD8520728BF30C148BFAA
:1001E0000B607047642900F01981752900F01681B1
:1001F000782900F07A81632900F0EC82732900F0FD
:10020000F182002070471FB51FBD10B510BD00F072
:1002100007FB1146FFF7F7FF00F030FB00F025FB6E
:1002200003B4FFF7F2FF03BC01F0F4FE0948804776
:1002300009480047FEE7FEE7FEE7FEE7FEE7FEE7C8
:10024000FEE7FEE7FEE7FEE704480549054A064BE0
:1002500070470000F515000831010008681E0020F5
:10026000682400206820002068200020EFF3108020
:1002700072B6704780F310887047334A1368012BB9
:1002800004D04FF001031360304A1060304A11600F
:1002900030484FF0805101607047EFF3108272B622
:1002A0002948016891B14FF00001016027480168B9
:1002B00029B1EFF3098121E9F00F006801602449B9
:1002C00009680968B1E8F00F81F3098882F31088A2
:1002D0004EF0040E70471E4908601C494FF00000A4
:1002E000086019494FF0010008601B484FF47F0176
:1002F000D0F8002041EA0201016016484FF0805119
:10030000016016480068006880F3088861B662B62C
:1003100070471EF0040F0CBFEFF30880EFF3098065
:1003200020E9F00F40F804ED1EF0040F0CBF80F33D
:10033000088880F3098800B502F018FA5DF804EB2C
:100340004EF0040E7047000008020020000200205A
:100350000402002004ED00E020ED00E008ED00E0E4
:10036000704700000FB4044910B503AA029800F0CA
:100370003DFA10BC5DF814FB2800002070B504465F
:1003800085690068C10601D5302600E02026C00737
:1003900007D070BDD4E9012130469047206A401C47
:1003A00020626D1EF6D570BD70B504468569007873
:1003B000C00707D170BDD4E9012120209047206AF1
:1003C000401C20626D1EF6D570BD70B50C4605460A
:1003D000012A05D02878800600D5EA69002302E0CA
:1003E000012305E05B1C934202D2E05C0028F9D1B6
:1003F000A869E618C01AA861286A18442862284625
:10040000FFF7BCFF04E0D5E9012114F8010B904788
:10041000B442F8D32846FFF7C7FF70BD2DE9F0417D
:100420000646002410687529314616A510D0AFF392
:100430000080002802DA404213A507E031688A07ED
:1004400001D512A502E0490704D511A5012401E058
:10045000AFF3008000210A2206F1240709E0B0FB77
:10046000F2FCB0FBF2F302FB1C003030785418466B
:10047000491C0028F3D123462A463046BDE8F04106
:1004800000F02CB9000000002D0000002B0000003F
:1004900020000000F0B40D460188090502D5214C6A
:1004A0007C4402E01F4C7C440E34002100F1240601
:1004B00008E002F00F071209E75D42EA03721B0928
:1004C0007754491C52EA0307F3D10278002312073C
:1004D00004D5702D06D009B1022311342246F0BC98
:1004E00000F0FCB801231034F8E770B504460D465F
:1004F00021461068AFF30080024629462046BDE839
:1005000070400023C6E7D21D22F00703D3E9002381
:10051000C0E70368126843F0200303600823C36147
:100520000023B7E7425000002DE9F05F89460446FA
:100530004FF0000ADFF874B1FB44C0F820A0204659
:10054000E1688847002874D0252806D0D4E9012125
:100550009047206A401C2062F1E700265F46204653
:10056000E16888472028054607DB312D05D2781938
:1005700010F8200C08B10643F1E7B00701D526F0CA
:100580000406C4F81CA00027C4F818A02A2D09D01E
:10059000284601F0BDFC38B304EB8708303DC8F8AD
:1005A000185019E059F8041B204604EB87029161AA
:1005B000E1688847012F054618D1E069002820DA54
:1005C00026F020061DE0D8F8180000EB800005EBAF
:1005D00040003038C8F818002046E16888470546D2
:1005E00001F096FC0028EED1012F0AD02E2D08D163
:1005F0002046E16888477F1C0546022F46F020060A
:10060000C4DBA069002803DA404246F00106A0617D
:10061000F00701D026F010066C2D0BD0682D09D004
:100620004C2D39D06A2D35D0742D35D07A2D33D05C
:1006300016E038E0E1682F4620468847B842054674
:1006400009D16C2F26D04FF48060E1680643204624
:100650008847054604E06C2F1AD04FF4807006439B
:100660000DB3A5F14100192802D8203546F40066E3
:100670004A462946204626604E46FFF7B3FD80B124
:1006800001280BD0F61D26F0070000F1080956E7F7
:100690004020E4E78020D8E70020D6E706F10409EF
:1006A0004DE7284652E7206ABDE8F09FD24F000090
:1006B00030B505460B462A4613F8014B12F8010BDC
:1006C00008B1A042F8D01CB1002802D06D1CF1E79F
:1006D000284630BD70477047704770472DE9F04796
:1006E0000D4699469246044600F1240801688806A2
:1006F00004D5E06921F01001216000E00120A8424A
:1007000001DD471B00E00027A1697A1902EB09000F
:10071000081AA0612078C00602D42046FFF72EFEFA
:10072000002608E0D4E901211AF806009047206A63
:10073000401C761C20624E45F4DB2078C0060AD5AA
:100740002046FFF71BFE06E0D4E901213020904748
:10075000206A401C2062381EA7F10107F4DC07E084
:10076000D4E9012118F805009047206A401C206256
:10077000281EA5F10105F3DC2046FFF715FE2078C1
:10078000000602D50220BDE8F0870120FBE700004B
:1007900001694A1C02610878704700B58FB0CDE945
:1007A00001310021059105497944CDE90310114635
:1007B0006846FFF7B9FE0FB000BD0000E5FFFFFF80
:1007C00010B5436913B1AFF3008001E0FFF7FDFD01
:1007D000012010BD127800F124010A7000224A7035
:1007E0000122EDE711684FF0FF32E9E7074B70B5E2
:1007F0000D467B44FFF7D1FF0446284600F008F879
:1008000010B14FF0FF3070BD204670BD27180000BA
:10081000007B00F08000704700487047041E0020F5
:100820007546FFF7F9FFAE4605006946534620F0CE
:100830000700854618B020B5FFF706FDBDE820404B
:100840004FF000064FF000074FF000084FF0000B8C
:1008500021F00701AC46ACE8C009ACE8C009ACE83F
:10086000C009ACE8C0098D46704710B50446AFF327
:1008700000802046BDE81040FFF7D2BC10B503F061
:1008800099F9002010BD00BFFEE770472DE9F04147
:10089000024600250026002000230024002791F8AE
:1008A00003C00CF00F0591F803C00CF0100CBCF164
:1008B000000F03D091F802C04CEA050591F800C082
:1008C000BCF1000F31D0146800202BE04FF0010C78
:1008D0000CFA00F3B1F800C00CEA03069E4220D1E6
:1008E00083004FF00F0C0CFA03F7BC4305FA03FC2E
:1008F0004CEA040491F803C0BCF1280F06D14FF074
:10090000010C0CFA00FCC2F814C00AE091F803C014
:10091000BCF1480F05D14FF0010C0CFA00FCC2F8F5
:1009200010C0401C0828D1D31460B1F800C0BCF13D
:10093000FF0F34DD546800202EE000F1080C4FF06A
:10094000010808FA0CF3B1F800C00CEA03069E4255
:1009500021D183004FF00F0C0CFA03F7BC4305FACA
:1009600003FC4CEA040491F803C0BCF1280F05D144
:1009700000F1080C08FA0CF8C2F8148091F803C0D2
:10098000BCF1480F07D100F1080C4FF0010808FA3C
:100990000CF8C2F81080401C0828CED35460BDE883
:1009A000F0810161704770B504460D462946204626
:1009B00000F0C0FA2946204600F03AF829462046C1
:1009C00000F0EAF82946204600F01AF929462046A8
:1009D00000F072F92946204600F080FA70BD000050
:1009E00008B50121482000F01FFC2020ADF80000D0
:1009F00010208DF8030003208DF802006946094895
:100A0000FFF744FF20210748FFF7CBFF2020ADF878
:100A1000000069460448FFF739FF20210248FFF72C
:100A2000C0FF08BD000C01400018014000BFFEE7F8
:100A30002DE9FC5F07468A464FF00008CDF804A078
:100A400046A10198FFF734FE0646F079303800F0F1
:100A5000FF0B0321304600F085F80546FF2D04D03A
:100A60007019694600F007FB78704FF0000970E0DC
:100A70003AA10198FFF71CFE0646002460E004201E
:100A800000EB8400C1B2304600F06CF80546FF2D43
:100A90000AD07019694600F0EEFAC1B208EB88027C
:100AA00007F13E00815400E04CE0052000EB84009B
:100AB000C1B2304600F056F80546FF2D0BD0701934
:100AC000694600F0D8FAC1B208EB880207F13E008F
:100AD0001044417000E035E0062000EB8400C1B214
:100AE000304600F03FF80546FF2D0BD070196946DF
:100AF00000F0C1FA81B208EB880207F13E00104411
:100B0000418000E01EE0072000EB8400C1B23046C7
:100B100000F028F80546FF2D0BD07019694600F04B
:100B2000AAFAC1B208EB880207F13E001044017135
:100B300000E007E008F1010000F0FF08601CC4B20B
:100B4000042C9CDB00BF701C019009F1010000F037
:100B5000FF09D9458CDBBDE8FC9F000024424447D7
:100B6000535600000246134610E010782A2805D09C
:100B70001078202802DB10787A2801DDFF207047EA
:100B800010782C2801D1481EC1B2521C0029ECD18A
:100B9000D01AC0B2F3E70000F8B505460F4616A11B
:100BA0003846FFF785FD064606213046FFF7DAFF97
:100BB0000446FF2C05D03019694600F05CFA85F830
:100BC0008B0007213046FFF7CDFF0446FF2C05D0F0
:100BD0003019694600F04FFA85F88C00092130463B
:100BE000FFF7C0FF0446FF2C05D03019694600F01E
:100BF00042FAC5F8A000F8BD24474E47474100001F
:100C00002DE9F8430546884629A14046FFF750FDE7
:100C1000064602213046FFF7A5FF0446FF2C05D00B
:100C20003019694600F027FA85F89900002713E08B
:100C3000F81CC1B23046FFF795FF0446FF2C08D0E0
:100C40003019694600F017FAC1B205F18D00C1559F
:100C500000E003E0781CC7B20C2FE9DB00BF0F21D6
:100C60003046FFF77FFF0446FF2C05D03019694658
:100C700000F001FAA5F89A0010213046FFF772FF44
:100C80000446FF2C05D03019694600F0F4F9A5F8A8
:100C90009C0011213046FFF765FF0446FF2C05D06C
:100CA0003019694600F0E7F9A5F89E00BDE8F88321
:100CB00024474E47534100002DE9F04F85B00446CC
:100CC000884683A14046FFF7F3FC074601213846DA
:100CD000FFF748FF0546FF2D23D0781904A900F03F
:100CE000CAF982469DF810100A2000F0B9F9BAFB43
:100CF000F0F642F21070B6FBF0F0C1B27E20015562
:100D00006420B6FBF0F06421B0FBF1F201FB1201AC
:100D10007F2001556420B6FBF0F100FB11618020BB
:100D2000015503213846FFF71DFF0546FF2D45D02D
:100D3000781904A900F09FF906469DF81000801C60
:100D4000C1B20A2000F08CF9B6FBF0F044F8810F34
:100D50009DF81000801CC1B20A2000F081F9B6FB9A
:100D6000F0F100FB116A504604F0C4F981469DF889
:100D70001000C0F10500C1B20A2000F071F9009026
:100D800004F0B8F98346494604F0C8F9824652494E
:100D900004F0CEF8052102900A2000F061F92168E4
:100DA00000FB01FA504604F0A5F90190029904F005
:100DB0005DF8039004F07EF944F881090421384677
:100DC000FFF7D0FE0546FF2D02D0785D84F8850040
:100DD00005213846FFF7C6FE0546FF2D45D0781998
:100DE00004A900F048F906469DF81000801CC1B225
:100DF0000A2000F035F9B6FBF0F044F8860F9DF8B4
:100E00001000801CC1B20A2000F02AF9B6FBF0F1F4
:100E100000FB116A504604F06DF981469DF8100000
:100E2000C0F10500C1B20A2000F01AF9009004F0E8
:100E300061F98346494604F071F98246264904F077
:100E400077F8052102900A2000F00AF9216800FBDA
:100E500001FA504604F04EF90190029904F006F8A8
:100E6000039004F027F944F8860906213846FFF775
:100E700079FE0546FF2D02D0785D84F88A000921AD
:100E80003846FFF76FFE0546FF2D1ED0781904A9DE
:100E900000F0F1F8064642F21070B6FBF0F0C1B275
:100EA0007D2001556420B6FBF0F06421B0FBF1F227
:100EB00001FB12017C2001556420B6FBF0F100FB20
:100EC000116000F5FA60A4F87A0005B0BDE8F08F73
:100ED00024474E524D43000000007042F8B50446CE
:100EE0000D4612A12846FFF7E3FB064607213046D0
:100EF000FFF738FE0746FF2F16D0F019694600F0BD
:100F0000BAF8A4F8A4009DF8000003280CDA9DF8B4
:100F10000000C0F10300C1B20A2000F0A1F8B4F84B
:100F2000A4104843A4F8A400F8BD000024474E567E
:100F3000544700002DE9FC5F07468A464FF0000841
:100F4000CDF804A044A10198FFF7B2FB0646F07962
:100F5000303800F0FF0B03213046FFF703FE054653
:100F6000FF2D04D07019694600F085F838704FF0F5
:100F700000096CE038A10198FFF79AFB06460024AF
:100F80005CE0042000EB8400C1B23046FFF7EAFDCC
:100F90000546FF2D09D07019694600F06CF8C1B202
:100FA00008EB8802B81C815400E049E0052000EB02
:100FB0008400C1B23046FFF7D5FD0546FF2D0AD0AB
:100FC0007019694600F057F8C1B208EB8802B81CE6
:100FD0001044417000E033E0062000EB8400C1B211
:100FE0003046FFF7BFFD0546FF2D0AD07019694650
:100FF00000F041F881B208EB8802B81C104441802F
:1010000000E01DE0072000EB8400C1B23046FFF78E
:10101000A9FD0546FF2D0AD07019694600F02BF88E
:10102000C1B208EB8802B81C1044017100E007E06F
:1010300008F1010000F0FF08601CC4B2042CA0DB22
:1010400000BF701C019009F1010000F0FF09D945B3
:1010500090DBBDE8FC9F000024475047535600003A
:1010600010B50246012000E050430B1EA1F101041F
:10107000E1B2F9D110BD2DE9F34F81B007463C46EE
:1010800000200090834681460026804628E0207894
:101090002D2802D148F00208641C20782C2802D0A8
:1010A00020782A2800D11CE020782E2803D148F08F
:1010B0000108641C09E02078392802DC20783028F7
:1010C00003DA4FF0000900260BE008F0010010B130
:1010D000701CC6B203E009F1010000F0FF09641CB6
:1010E000D5E700BF08F0020000B17F1C00250EE02C
:1010F000A9F10100401BC1B20A20FFF7B1FF795DE1
:101100003039009A00FB01200090681CC5B24D45A3
:10111000EEDB052E00DD05260298067000250EE0A8
:10112000701E401BC1B20A20FFF79AFF09F10101AE
:101130002944795C303900FB01BB681CC5B2B5425B
:10114000EEDB31460A20FFF78BFF009901FB00BA66
:1011500008F0020008B1CAF1000A5046BDE8FE8F4F
:101160007047000070B5002100230F22C47804B33B
:10117000154C246804F4E064C4F5E064210AC1F16C
:101180000403CA40447804FA03F1847814402143EC
:1011900009010E4C0678A155047804F01F050124BE
:1011A000AC4005786D11AD0005F1E025C5F80041B2
:1011B00009E0047804F01F050124AC40044D0678D2
:1011C000761145F8264070BD0CED00E000E400E02B
:1011D00080E100E002490143024A116070470000CB
:1011E0000000FA050CED00E029B1064AD26902437D
:1011F000044BDA6104E0034AD2698243014BDA61AD
:10120000704700000010024029B1064A12690243EB
:10121000044B1A6104E0034A12698243014B1A61CC
:10122000704700000010024029B1064A926902434B
:10123000044B9A6104E0034A92698243014B9A612C
:10124000704700000010024029B1064AD2680243EC
:10125000044BDA6004E0034AD2688243014BDA604F
:10126000704700000010024030B500210022002429
:1012700000232D4D6D6805F00C0121B1042905D026
:10128000082923D105E0294D056022E0274D05609E
:101290001FE0254D6D6805F47012234D6D6805F44F
:1012A0008034022505EB92421CB9214D554305605F
:1012B0000BE01D4D6D6805F400351DB11C4D554307
:1012C000056002E0194D5543056002E0174D0560C9
:1012D00000BF00BF144D6D6805F0F0010909154D00
:1012E0006B5C0568DD4045600F4D6D6805F4E0619D
:1012F000090A104D6B5C4568DD4085600A4D6D68DC
:1013000005F46051C90A0B4D6B5C4568DD40C56052
:10131000054D6D6805F44041890B074D6B5CC56850
:10132000B5FBF3F5056130BD0010024000127A00F4
:1013300000093D002E0000203E000020704710B53F
:1013400000F002F810BD00000CB5002001900090E4
:101350003348006840F480303149086000BF3048AD
:10136000006800F4003000900198401C0190009843
:1013700018B90198B0F5A06FF1D12948006800F4C0
:10138000003010B10120009001E000200090009892
:10139000012843D12348006840F01000214908602B
:1013A0000846006820F0030008600846006840F026
:1013B000020008601A4840681949486008464068B9
:1013C00048600846406840F48060486008464068CD
:1013D00020F47C1048600846406840F4E8104860FB
:1013E0000846006840F08070086000BF0C48006844
:1013F00000F000700028F9D00948406820F0030090
:10140000074948600846406840F00200486000BF55
:101410000348406800F00C000828F9D10CBD00001A
:10142000001002400020024070B50025002604E0B4
:10143000681C85B2052001F076FF1448008800F48E
:10144000004008B9642DF3DB642D19DA0F480088D9
:10145000C0F30E0500240CE00D48005D832800D188
:1014600009E00B48005D842801D1032603E0601CDD
:1014700084B2AC42F0DB00BFAC4202D1022600E0F5
:101480000126002001490880304670BD140000206C
:101490001012002070B50546144C4AF2A0102080AE
:1014A0004FF4806060800520207100206071A5717C
:1014B0000120E071207961794840A1794840E179C3
:1014C0004840207240F60D20A4F809000B21204668
:1014D00000F072F8C82001F026FF054951F82500F8
:1014E00002F0E0FBFFF7A0FF70BD000068140020D1
:1014F000A053000870B505460D4C4AF2A01020809C
:101500004FF4407060800E20207165710120A07141
:10151000207961794840A1794840E07140F60D207A
:1015200020810A21204600F047F8FFF77DFF70BDBB
:101530006814002070B505462E461E4C4FF47F40BF
:1015400000EA152040EA15604FF47F0101EA052109
:1015500008434FF07F4101EA056140EA01064AF283
:10156000A01020804FF4E060608065202071012091
:101570006071C4F80660A072207961794840D4F89F
:10158000061080EA1160C1F307414840E188C1F3C9
:1015900007214840A1794840A17A4840E07240F6CE
:1015A0000D20A0810E21204600F006F8FFF73CFF39
:1015B00070BD00006814002010B5024600200CE049
:1015C00000BF074B1B8803F04003002BF9D0135CCE
:1015D000034C241D2380431C98B28842F0DB10BDCD
:1015E0000048004010B501F0E7F902F015F801F0ED
:1015F000F3F910BD10B51348006840F0010011491F
:10160000086008464068104908400E49486008468E
:1016100000680E4908400B4908600846006820F43D
:10162000802008600846406820F4FE0048604FF4BF
:101630001F008860FFF783FE4FF0006004490860D8
:1016400010BD0000001002400000FFF8FFFFF6FE92
:1016500008ED00E010B501210A4800F07FF80128EC
:101660000AD10949086980470021064800F0EDF9D0
:101670006421044800F0E7F90121024800F053F822
:1016800010BD0000000800408800002010B50121B6
:10169000094800F063F868B10848008840F4004049
:1016A000064908800121044800F03DF80021024865
:1016B00000F03CF810BD00000014004014000020B1
:1016C0007FB505460C4601212020FFF78DFDADF8C2
:1016D0000450ADF800400020ADF80600ADF802005F
:1016E00069460E4800F0B4F9012211460B4800F09B
:1016F00046F80121094800F019F837208DF80C0050
:1017000000208DF80D0002208DF80E0001208DF8CC
:101710000F0003A8FFF726FD7FBD00000014004066
:10172000CA4302827047CA430282704721B10288CD
:1017300042F00102028004E002884FF6FE731A4074
:10174000028070470146888C704702460020138A49
:101750000B400BB1012000E00020704730B502467D
:10176000002000230024158A05EA0103958905EA73
:10177000010413B10CB1012000E0002030BD1AB10A
:1017800083890B43838102E083898B438381704784
:1017900070B5002400220023058C4FF6FE763540FC
:1017A0000584028C8388048B4FF68F752C40B51E00
:1017B0002C400D882C43751E2A400D892A434D88E4
:1017C0002A43144DA8420BD0134DA84208D0134D04
:1017D000A84205D0124DA84202D0124DA84213D102
:1017E0004FF6F7752A404D892A434FF6FB752A407C
:1017F0008D882A434FF6FF652B404FF6FF552B404F
:101800008D892B43CD892B4383800483CD888586A6
:10181000028470BD002C01400034014000400140B2
:1018200000440140004801400A460021018B4FF668
:10183000F7731940114301837047000070B500240D
:1018400000220023058C4FF6EF7635400584028C8C
:101850008388048B48F6FF752C404FF6FF452C40DB
:101860000D884FF6FF7606EA05252C434FF6DF7507
:101870002A400D8906EA05152A434D8806EA051512
:101880002A43154DA84202D0144DA8421DD14FF64F
:101890007F752A404D894FF6FF7606EA05152A43E3
:1018A0004FF6BF752A408D8806EA05152A434FF684
:1018B000FF352B404FF2FF752B408D8906EA8505D9
:1018C0002B43CD8906EA85052B4383800483CD888D
:1018D0000587028470BD0000002C014000340140E7
:1018E0000A460021018B4FF2FF7319404FF6FF7338
:1018F00003EA0223194301837047000070B50024F6
:1019000000220023058C4FF6FF6635400584028CCB
:101910008388848B4FF68F752C404FF6FC752C40D6
:101920000D882C434FF6FF552A400D894FF6FF7660
:1019300006EA05252A434D8806EA05252A43154D62
:10194000A84202D0144DA8421DD14FF2FF752A4083
:101950004D894FF6FF7606EA05252A434FF6FF35F7
:101960002A408D8806EA05252A434EF6FF752B404E
:101970004DF6FF752B408D8906EA05152B43CD8961
:1019800006EA05152B4383808483CD8885870284EE
:1019900070BD0000002C0140003401400A460021C7
:1019A000818B4FF6F7731940114381837047000014
:1019B00070B5002200230024058C4EF6FF763540DA
:1019C0000584038C8488828B48F6FF752A404FF685
:1019D000FF452A400D884FF6FF7606EA05252A4383
:1019E0004DF6FF752B400D8906EA05352B434D88D2
:1019F00006EA05352B430B4DA84202D00A4DA842FA
:101A000008D14BF6FF752C408D894FF6FF7606EA1C
:101A100085152C4384808283CD88A0F840500384B0
:101A200070BD0000002C0140003401400A46002136
:101A3000818B4FF2FF7319404FF6FF7303EA0223C5
:101A40001943818370478185704781847047000006
:101A5000002202881D4B98420ED01D4B98420BD09D
:101A6000B0F1804F08D01B4B984205D01A4B9842DA
:101A700002D01A4B984204D14FF68F731A404B880C
:101A80001A43174B984207D0164B984204D04FF692
:101A9000FF431A40CB881A4302808B8883850B88CA
:101AA00003850A4B98420BD0094B984208D00E4B45
:101AB000984205D00D4B984202D00D4B984201D16F
:101AC0000B7A03860123838270470000002C0140BB
:101AD000003401400004004000080040000C0040B9
:101AE000001000400014004000400140004401404C
:101AF000004801407FB505460C4601210420FFF750
:101B000073FBADF80850ADF804400020ADF80A00B2
:101B1000ADF8060001A90D48FFF79AFF0122412107
:101B20000A48FFF72CFE1E208DF8000003208DF8D8
:101B300001008DF8020001208DF803006846FFF7D0
:101B400011FB01210148FFF7F1FD7FBD00080040B6
:101B500010B540F225511D4800F0E3F810B31B48C2
:101B600000F09AF9C4B21A48008800F40040C8B9DD
:101B70001748008800F4804060B10A2C03D0002090
:101B80001349088020E01248008840F400401049C2
:101B9000088019E00D2C06D10D48008840F48040E3
:101BA0000B49088010E00A480088C0F30D0009497D
:101BB0000C5407480088401C0549088008460088E6
:101BC000C72801DD0020088010BD0000003801405A
:101BD0002C000020221A002010B540F22551184890
:101BE00000F09FF818B3164800F056F9C4B2154833
:101BF000008800F40040D0B912480088B0F5167F84
:101C000016DA00211048FFF720FF0E48008818B9A7
:101C100001210D48FFF78AFD0A490888411C094A3D
:101C200011800A490C540A48006801F0B7F905E030
:101C30000448008840F400400249088010BD0000BC
:101C40000048004014000020001400401012002042
:101C50001C00002021B1828942F40052828104E0FC
:101C600082894DF6FF731A408281704710B5044691
:101C70002048844209D101218803FFF7E5FA0021B9
:101C80004FF48040FFF7E0FA32E01B48844209D16C
:101C900001214804FFF7B8FA00214FF40030FFF7A4
:101CA000B3FA25E01548844209D101218804FFF7E1
:101CB000ABFA00214FF48020FFF7A6FA18E0104895
:101CC000844209D10121C804FFF79EFA00214FF494
:101CD0000020FFF799FA0BE00A48844208D101215D
:101CE0000805FFF791FA00214FF48010FFF78CFAF6
:101CF00010BD000000380140004400400048004092
:101D0000004C00400050004002460020B1F5007F2A
:101D100000D100BF13880B400BB1012000E0002070
:101D2000704770B50246002400230025002040F6CD
:101D30006A16B14200D100BFC1F3421501F01F0382
:101D4000012606FA03F3012D02D19689334006E0FD
:101D5000022D02D1168A334001E0968A33400C12DC
:101D6000012606FA04F41688344013B10CB10120A0
:101D700000E0002070BDF0B50346002400260025D9
:101D8000002040F66A17B94200D100BF1846C1F3DF
:101D9000421401F01F06012707FA06F5012C01D1B4
:101DA0000C3004E0022C01D1103000E014301AB1E4
:101DB00007682F43076002E00768AF430760F0BD84
:101DC0002DE9F04786B005460E460024A24600BF26
:101DD000A1460027B08900B100BF2F462C8A4CF6DF
:101DE000FF700440F08804432C82AC894EF6F31057
:101DF0000440B08831890843718908430443AC81A9
:101E0000AC8A4FF6FF400440B0890443AC8201A87D
:101E1000FFF72AFA1F48874202D1DDF810A001E03F
:101E2000DDF80CA0A88900F4004040B10AEBCA001C
:101E300000EB0A1031684900B0FBF1F807E00AEB4B
:101E4000CA0000EB0A1031688900B0FBF1F8642089
:101E5000B8FBF0F004012009642101FB1089A88976
:101E600000F4004040B1322000EBC900B0FBF1F0BB
:101E700000F00700044308E0322000EB0910642161
:101E8000B0FBF1F000F00F0004432C8106B0BDE878
:101E9000F08700000038014001468888C0F3080040
:101EA0007047C1F308028280704700BFFEE7000060
:101EB000014609B900207047C8B220B1C8B20E4A25
:101EC000105C401CF7E701F47F4028B10A48C1F3D9
:101ED0000722805C0930EEE701F47F0028B1064854
:101EE000C1F30742805C1130E5E7034800EB116065
:101EF00000781930DFE70000C45300080349086880
:101F0000884201D0012070470020FCE7EC0100204E
:101F100030380A2801D201207047002070470000A5
:101F20002DE9FC5F04468B4615461E46DDE90C9AFA
:101F3000DDE90E7804F114004060006000BF1C343D
:101F40006560A660C4F80C90C4F810A02321D4E901
:101F5000030200F0AFFED4E9033C63441A1F0F4BA9
:101F6000D4E9010100F002FD2060A7766776002029
:101F7000E061C4F82080C4F8248060612076606548
:101F8000A0651C3C00902346054A2146019004F1BF
:101F9000440001F0C3FB0020BDE8FC9F353300087E
:101FA000893500082DE9F04704460E461746984645
:101FB000DDF8209084F80990607A20F001006072CA
:101FC000E66127620020A062C4F82480002506E0B4
:101FD00004F1140101EBC50000F074FD6D1C012D2E
:101FE000F6DBBDE8F08710B50246002001460EE0A2
:101FF00002F1140303EBC100D0E900436360D0E9B0
:10200000003423604060006000BF481C0146012985
:10201000EEDB10BD014600BF7047000000BF054A5F
:10202000128802F04002002AF9D0C2B2014B1B1DF7
:102030001A8070470038014010B5FF240520FFF7D3
:1020400059FAE8B100BF0F48006808B9012000E064
:1020500000200C4908604FF4165001F023FE0320C5
:10206000FFF718FA4FF4164001F01CFE0648FFF780
:1020700061FA04460520FFF73DFA08B1002CE2D1D1
:1020800010BD000094812142A086010032E04FF093
:10209000FF311948006800F09EFF18480088C0F31F
:1020A0000E05002405E01648005D16490855601C21
:1020B00084B2AC42F7DB0020104908801149085572
:1020C0001148FEF770FC00BF40211048FFF71CFECE
:1020D0000028F9D00C4801780C48FFF7E2FE0C48C4
:1020E000006808B9012000E00020094908600120CB
:1020F00001F019F9CBE700001C00002014000020BB
:1021000010120020C01600207C1900200038014069
:10211000940123421CB5002211460BA000F016FFCB
:102120000B490860142005214FF400730022CDE90B
:102130000010084908A001F0CEF8084908600846D8
:10214000006801F0E9F91CBD6770735F73656D008D
:102150001C0000208D20000867707300180000200C
:102160000BE00648006808B9012000E000200349A0
:1021700008604FF4FA7001F0D6F8F2E7948121423A
:102180000AE00648006808B9012000E00020034981
:102190000860C82001F0C7F8F3E70000940123426B
:1021A0001CB5142005214FF400730022CDE9001066
:1021B00009490AA001F08FF80A4908601420052196
:1021C0004FF400730022CDE90010074907A001F089
:1021D00082F8084908601CBD612100086C65643004
:1021E0000000000020000020812100086C6564319F
:1021F000000000002400002010B5FEF7F1FB4FF4B2
:10220000A060FEF7E7FF4FF4E13001F0FBFC4FF474
:10221000164001F047FDFFF70FFF00F00DF8FFF744
:10222000BFFFFFF777FF002010BD10B5044600F098
:10223000A7F9FFF7E1FF10BD30B589B03F2445F2A3
:10224000E37501210220FEF7CFFF01210C20FEF7EC
:10225000EBFF18208DF8230003208DF8220040208A
:10226000ADF8200008A92A48FEF710FB8020ADF841
:10227000200008A92648FEF709FB0120ADF8200040
:1022800008A92448FEF702FB0220ADF8200008A9A7
:102290002048FEF7FBFAADF81850ADF814400020C6
:1022A000ADF81A00ADF8160005A91B48FFF7D0FBE2
:1022B0006020ADF804000120ADF806000020ADF864
:1022C0000C0001A91448FFF763FA08211248FFF730
:1022D000ABFA01A91048FFF7B1FA08210E48FFF741
:1022E000FFFA01A90C48FFF709FB08210A48FFF78C
:1022F00055FB01A90848FFF75BFB08210648FFF7DB
:1023000095FB01210448FFF711FA09B030BD000028
:1023100000080140000C01400004004030B51A4C98
:10232000436824681919884215D04B889BB9174B0C
:102330001B6899420FD0164B1B688B4201D1144B7E
:1023400018604B684360104B1B68C31A0E4D4C68F5
:102350002D682C44A3600C4C836824681A198242AF
:1023600011D053887BB90A4B1B68834201D1084BBB
:102370001A6043685360044B1B68D31A024D4468CB
:102380002D682C44A36030BD84010020880100200A
:102390008C0100202DE9F04F86B00D469C46DDE90A
:1023A000106401960F9B04F04008B8F1000F02D0B2
:1023B000DFF8708101E0DFF87081CDF8008004F073
:1023C0001008B8F1000F01D024F0010404F0010856
:1023D000B8F1000F02D04FF0300801E04FF02008B4
:1023E000C246002704F00208B8F1000F11D0002AFD
:1023F00002DA2D2752420CE004F00408B8F1000F75
:1024000001D02B2705E004F00808B8F1000F00D038
:102410002027002142B94FF0300B8846491C0DF1AE
:10242000080909F808B01DE01AE0E146B9F10A0F01
:1024300008D14FF00A0BB2FBFBFE0BFB1E28B2FBD0
:10244000FBF202E002F00F08120900BFDDF8009075
:1024500019F808B08846491C0DF1080909F808B0B8
:10246000002AE2D1B14200DD0E469B1B04F01108A8
:10247000B8F1000F10D117B1002B00DD5B1E06E094
:10248000A84203D24FF0200880F80080401CB3F12E
:102490000008A3F10103F3DC27B1A84200D20770C2
:1024A0005B1E401C04F01008B8F1000F0AD104E0D4
:1024B000A84201D280F800A0401CB3F10008A3F1AB
:1024C0000103F5DC06E0A84203D24FF0300880F8A3
:1024D0000080401CB046761E8845F4DC08E0A84227
:1024E00005D20DF1080818F8018080F80080401C22
:1024F000B1F10008A1F1010104DDDDF80480B8F1BB
:10250000000FECD106E0A84203D24FF0200880F87B
:102510000080401CB3F10008A3F10103F3DC06B016
:10252000BDE8F08FD5540008C4540008014608687F
:10253000704700001CB514200A214FF400730022DC
:10254000CDE90010044905A000F0C5FE0446204670
:1025500000F0E2FF1CBD00002B2200086D61696ED7
:102560000000000010B5044C02E020688047241DE4
:1025700002488442F9D310BDE0550008E455000834
:1025800010B5044C02E020688047241D02488442B4
:10259000F9D310BDE4550008E855000810B5FDF763
:1025A00065FE044604480088401C00B202490880C9
:1025B0002046FDF75FFE10BDDC01002010B5FDF7E1
:1025C00055FE04460C480088401E00B20A490880A7
:1025D0000846B0F9000000280ADC002008802046E8
:1025E000FDF748FE0548006828B100F01BFC02E03A
:1025F0002046FDF73FFE10BDDC010020E001002079
:1026000070B5054605B970BD1D480068854203D305
:102610001C480068854200D3F5E7A5F10C044FF093
:10262000FF31194800F0D7FC608818B12088B0F558
:10263000F55F08D015A000F027FA238862882146AC
:1026400019A000F021FA002060804FF4F55020809E
:1026500021480068844201D21F480460084960682C
:102660000968611A401A1D490968081A1B4908605F
:102670002046FFF753FE044800F090FC00BFC2E77D
:102680008401002088010020E41C0020746F206673
:1026900072656520612062616420646174612062FA
:1026A0006C6F636B3A0A00006D656D3A20307825D7
:1026B0003038782C207573656420666C61673A2029
:1026C00025642C206D6167696320636F64653A201F
:1026D0003078253034780A008C01002094010020E5
:1026E0000048704710020020004870471012002078
:1026F00070B51A4800684FF47A72B0FBF2F1B1F18C
:10270000807F00D31DE021F07F40401E4FF0E0228B
:10271000506150170F22002807DA13071D0E104BC7
:1027200000F00F04241F1D5503E013071C0E0D4B72
:102730001C5400BF00204FF0E02290610720106180
:1027400000BFFFF70FFFFFF7CFFF0446FFF7C8FFFB
:102750000546214600F0F6FC70BD00000000002098
:1027600018ED00E000E400E07047000070B5054699
:102770002C1D2E48006838B128462C490968884726
:10278000064606B970BD00BF29A0E16B00F07CF9D8
:102790002BA0216A00F078F92DA0616A00F074F98D
:1027A0002FA0A16A00F070F931A0E16A00F06CF985
:1027B00033A0216800F068F935A0616800F064F981
:1027C00037A0A16800F060F939A0E16800F05CF979
:1027D0003BA0216900F058F93DA0616900F054F96F
:1027E0003FA0A16900F050F941A0E16900F04CF967
:1027F00043A0216B00F048F945A0616B00F044F95B
:1028000047A0A16B00F040F9287800F0040038B12F
:1028100000F05AFE0646314645A000F035F902E0C8
:102820004BA000F031F900BFFEE700000C020020D1
:102830007073723A203078253038780A0000000032
:102840007230303A203078253038780A00000000A5
:102850007230313A203078253038780A0000000094
:102860007230323A203078253038780A0000000083
:102870007230333A203078253038780A0000000072
:102880007230343A203078253038780A0000000061
:102890007230353A203078253038780A0000000050
:1028A0007230363A203078253038780A000000003F
:1028B0007230373A203078253038780A000000002E
:1028C0007230383A203078253038780A000000001D
:1028D0007230393A203078253038780A000000000C
:1028E0007231303A203078253038780A0000000004
:1028F0007231313A203078253038780A00000000F3
:102900007231323A203078253038780A00000000E1
:10291000206C723A203078253038780A00000000A8
:102920002070633A203078253038780A00000000A3
:1029300068617264206661756C74206F6E207468C3
:10294000726561643A2025730D0A0D0A00000000CB
:1029500068617264206661756C74206F6E206861B6
:102960006E646C65720D0A0D0A000000F0B5044635
:102970000D461646301D20F0070040380146002263
:1029800003E00C4F41F82270521C102AF9D30D625B
:102990004FF0000CC1F824C0C1F828C0C1F82CC009
:1029A000C1F830C04B638C634FF0807CC1F83CC0F1
:1029B000F0BD0000EFBEADDE10B5FDF757FC0446DC
:1029C00004480078401C034908702046FDF752FC7B
:1029D00010BD00008001002010B5FDF747FC044643
:1029E00004480078401E034908702046FDF742FC69
:1029F00010BD00008001002070B504462068A0F1E1
:102A00001405284600F042FD002070BD2DE9F0417C
:102A100005460C469046204600F094FDB8F1000FA4
:102A200003D0B8F1010F23D105E004F114012846C9
:102A300000F060F81CE02E680FE0A6F1140794F88F
:102A4000350097F83510884206DA04F1140107F1D1
:102A5000140000F04FF802E03668AE42EDD100BF3E
:102A6000AE4204D104F11401284600F043F800BF3F
:102A700000BF0020BDE8F08110B5044604F1140049
:102A800000F01AF8002010BD0FB438B505A800906A
:102A90007F210848009B049A00F0ECFE04467F2C3E
:102AA00000D97F240348FFF75FFE0020009038BC68
:102AB0005DF814FB641C00204060006070474060BB
:102AC00000607047406000607047026851600268B3
:102AD0000A600160486070470268516002680A60DD
:102AE0000160486070470268516002680A600160D6
:102AF000486070474268116042684A6041600860FF
:102B0000704701460868884201D1012070470020C3
:102B1000FCE701460868884201D101207047002087
:102B2000FCE7D0E900215160D0E90012116040605B
:102B300000607047D0E900215160D0E900121160B7
:102B400040600060704700002DE9F041054615B96E
:102B50000020BDE8F081E81C20F003054E48006825
:102B6000854201D90020F4E70C2D00D20C254FF04E
:102B7000FF314A4800F02FFA49480068494909687E
:102B8000461A7EE04748006884196088002874D19E
:102B900006F10C006168081AA8426ED306F10C0019
:102BA0006168091A05F11800814230D306F10C0062
:102BB00000EB05083B48006800EB08074FF4F550B0
:102BC00038800020788060687860BE60C4F8048037
:102BD000012060803048796800680C30814205D05F
:102BE0003049786809680844C0F808802E480168B0
:102BF00005F10C0008442C4908602C48006809685D
:102C0000884219D2284800682849086014E0012049
:102C10006080244960680968611A401A224909687D
:102C2000084421490860214800680968884203D2A5
:102C30001D4800681D4908604FF4F5502080184871
:102C40000068844212D107E01548006840681549C1
:102C5000096808441249086011480068408828B192
:102C60000F480068124909688842EDD10B4800F00E
:102C700095F904F10C006CE7FFE70A48006830445E
:102C8000466805480068401BB0423FF67BAF0348EA
:102C900000F084F900205CE790010020E41C002093
:102CA0008C01002084010020940100209801002064
:102CB00088010020F0B50C460546E6B2042A15D37B
:102CC00000F0030797B9014646EA062343EA0343A7
:102CD00004E008C108C108C108C1103A102AF8D29E
:102CE00001E008C1121F042AFBD20D4601E005F8DD
:102CF000016B171EA2F10102F9D1F0BD2DE9F041DF
:102D000006460F46304600F045F80546E868FFF7EE
:102D10001BFF044614B90020BDE8F08100212046C5
:102D2000EA68FFF7C7FF2672002060720822394662
:102D3000204600F0ECF9FDF799FA804604F10C0109
:102D4000281DFFF7C2FE4046FDF794FA2046E3E750
:102D500070B5044600202072FDF788FA054604F19C
:102D60000C00FFF7DEFE2846FDF784FA2046FFF749
:102D700047FC70BD70B5044600202072FDF776FA5E
:102D8000054604F10C00FFF7CCFE2846FDF772FA69
:102D900070BD0000024600210AE0074800EB011068
:102DA0000078904203D1044800EB01107047491CA1
:102DB0000429F2DB0020F9E79C0100202DE9F0470F
:102DC00004460D46904600262846FFF7E3FF0746D7
:102DD000FFF7E4FB7E6802E0A6F10C003668381DC0
:102DE0008642F9D1FFF7EAFB45F080002072082205
:102DF0004146204600F08BF9FDF738FA814604F190
:102E00000C01381DFFF761FE4846FDF733FABDE8B7
:102E1000F0870146087A00F0800008B10120704771
:102E20000020FCE72DE9F041FDF720FA074618489D
:102E3000008838BB17480068FFF73AF8461E164866
:102E400050F83600A0F1140414480068844218D0E9
:102E500013490E701148056804601248007850B993
:102E600004F11C0105F11C00FDF707FA3846FDF7D7
:102E700001FABDE8F08104F11C0105F11C00FDF729
:102E8000FCF900BF3846FDF7F5F900BFF1E7000097
:102E9000DC010020E8010020041D0020E0010020EA
:102EA000E40100208001002070B50446FDF7DEF942
:102EB000054614F8340F20F00F0040F00100207098
:102EC0006278343C0A4B03EBC20004F114014268FF
:102ED000116042684A604160086000BF0549A06B0C
:102EE00009680843034908602846FDF7C3F970BD27
:102EF000041D0020E801002070B50446FDF7B6F976
:102F0000054604F11400D0E900215160D0E9001217
:102F100011604060006000BF94F83510094A02EB70
:102F2000C1000168814201D1012100E0002129B1E5
:102F30000548A16B00688843034908602846FDF7EF
:102F400099F970BD041D0020E80100202DE9F04131
:102F500005460E46174629460220FFF7CFFE0446D7
:102F600014B92046BDE8F0812046FFF785FDA68311
:102F700067722046F6E72DE9F04104460D461646F5
:102F80001F462A4602212046FFF718FF2046FFF77A
:102F900073FDA68367720020BDE8F08170B504461A
:102FA0000025FDF763F9064604F11400FFF7A9FDBB
:102FB00028B904F11400FFF71FFD012502E0A08BE2
:102FC000401CA0833046FDF755F9012D01D1FFF7D4
:102FD00029FF002070BD73B50546FDF747F9064689
:102FE000A88B002806DDA88B401EA8833046FDF77D
:102FF00041F928E0019828B93046FDF73BF96FF018
:1030000001007CBD00F060FA0446002020636A7A6B
:10301000214605F11400FFF7F9FC0198002809DDAD
:1030200001AA002104F1440000F04CFB04F144002B
:1030300000F08CFB3046FDF71DF9FFF7F3FE206B27
:1030400008B1206BDDE70020DBE7000008B509A030
:10305000FFF71AFD0AA0FFF717FD12A003230122B4
:103060001946009012A0FFF70FFD19A0FFF70CFD05
:1030700008BD00000A205C207C202F0A0000000010
:103080002D205254202D202020202054687265616C
:1030900064204F7065726174696E67205379737430
:1030A000656D0A00536570203231203230323000B5
:1030B000202F207C205C202020202025642E2564C9
:1030C0002E2564206275696C642025730A00000057
:1030D0002032303036202D203230313920436F708D
:1030E0007972696768742062792072742D746872CD
:1030F000656164207465616D0A00000001460A463E
:1031000000E0521C10780028FBD1501A704770B5AF
:103110000346A2B118460C4600BF14F8016B00F834
:10312000016B3EB902E0002500F8015B551E2A1E26
:10313000F9D102E0551E2A1EEFD100BF00BF18468C
:1031400070BD00002DE9F04105460E46E81C20F058
:10315000030726F00308B8F1180F09D9A8F11800E1
:10316000B84205D3A8EB070018381E49086006E0EE
:10317000324629461CA0FFF787FCBDE8F0812948AC
:10318000076004684FF4F5502080164800680C3042
:1031900060600020A060608022496068096808447F
:1031A000214908604FF4F5500968088001201E4944
:1031B000096848800B4800680C301B490968486062
:1031C000084800680C30184909688860002301220B
:1031D00016A11848FFF7CFFE12480068164908608C
:1031E00000BFCAE7900100206D656D20696E6974AB
:1031F0002C206572726F7220626567696E2061644F
:10320000647265737320307825782C20616E642099
:10321000656E64206164647265737320307825780C
:103220000A000000840100208801002068656170A8
:1032300000000000E41C00208C01002010B50020DC
:103240000B490880002405E00A4901EBC400FFF7A0
:1032500036FC641C202CF7DB1F2007490870002077
:1032600006490860064908600648FFF728FC10BDBB
:10327000DC010020041D0020E4010020E00100200A
:10328000E8010020EC01002070B508480068FEF756
:103290000FFE451E064850F83500A0F114040548FD
:1032A000046004F11C00FDF716F870BDE801002071
:1032B000041D0020E001002010B5002405E00449B1
:1032C00001EBC400FFF7FEFB641C002CF7D010BD1F
:1032D000F401002070472DE9FF5F06460F46904637
:1032E0001D46DDE90EAB31460120FFF707FD8146A3
:1032F000B9F1000F03D1002004B0BDE8F09F2846CB
:10330000FFF722FC044624B94846FFF721FD0020C0
:10331000F2E743463A46314648468DE8300CFEF720
:10332000FFFD4846E8E710B50446204600F0D2F815
:1033300010BD000070B512480468FCF797FF054601
:103340002046FFF7D9FD042084F8340004F144003E
:1033500000F0D4F92046FFF75CFD012805D1206F6D
:1033600018B92046FFF706FD04E004F114010548F2
:10337000FFF7B2FB2846FCF77DFFFFF753FD70BD5A
:10338000E0010020EC01002001E000F001F8FCE782
:1033900070B53AE0FCF76AFF0546FEF7AFFD30B3C3
:1033A0001D480068A0F1140404F11400D0E90021C4
:1033B0005160D0E9001211604060006000BFFFF76B
:1033C000EDF8206F10B12046216F88472046FFF7A7
:1033D00020FD012808D12046FFF7CCFCFFF7EEF8CE
:1033E0002846FCF747FF70BDFFF7E8F803E02846E2
:1033F000FCF740FFF7E72846FCF73CFFA06AFFF721
:10340000FFF82046FFF7A4FC00BFFEF777FD002879
:10341000C0D100BFE7E70000EC0100201FB520206D
:103420001F21C200074BCDE90032CDE90210002375
:10343000054A06A1074800F00FF8064800F06CF8AE
:103440001FBD0000641B0020893300087469646C90
:1034500065000000EC1A00202DE9FF5F05460C46D0
:1034600016461F46DDE910ABDDE90E892246012133
:103470002846FFF7A3FC3B463246214628468DE806
:10348000000FFEF74DFD04B0BDE8F09F70B5044697
:1034900094F8340000F00F00022802D04FF0FF3003
:1034A00070BDFCF7E3FE054604F11400FFF742FB94
:1034B00004F1440000F0C6F92846FCF7DBFE204684
:1034C000FFF7F2FC0020EBE70148006870470000BE
:1034D000E001002031B5FCF7C9FE05460D4804683F
:1034E000204600F02FF86A46002104F1440000F065
:1034F000E9F804F1440000F029F92846FCF7BAFE87
:10350000FFF790FC206B801C08B90020206300208E
:1035100038BD0000E001002010B504463434A07826
:1035200060706178012088406060022004F83409EE
:103530002046FFF7ABFFFFF7C7FF08B1FFF772FCAC
:10354000002010BD70B5044694F8340000F00F0060
:10355000012802D04FF0FF3070BDFCF787FE054612
:1035600094F8340020F00F0040F0020084F834009A
:103570002046FFF7C1FC04F1440000F063F928463F
:10358000FCF778FE0020E7E770B5044625466FF0AB
:103590000100286305F11400FFF7CCFA2846FFF775
:1035A00083FCFFF73FFC70BD70B5FCF75FFE05467E
:1035B0001448046894F8340000F00F0001281CD16E
:1035C000D4E90510814218D004F11400FFF7B2FAD3
:1035D00094F835200C4B03EBC20004F1140142684F
:1035E000116042684A604160086000BF2846FCF7ED
:1035F00041FEFFF717FC002070BD2846FCF73AFE9D
:103600000020F9E7E0010020041D002001480068C7
:10361000704700007C01002010B50A480068401C7B
:1036200008490860FFF750FF0446206C401E2064E4
:10363000206C18B9E06B2064FFF7B6FF00F004F8C7
:1036400010BD00007C01002070B5FFF7DFFF0546CC
:10365000FCF70CFE064628E019480068A0F11404A7
:10366000A06A281A6FF0004188421DD22046FEF75A
:10367000BAFCD4E907108847FFF7C8FF0546607A0F
:1036800000F0020058B1607A00F0010038B1607AB1
:1036900020F001006072204600F058F805E0607AE2
:1036A00020F00100607200E004E00548FFF731FA05
:1036B0000028D1D000BF3046FCF7DCFD70BD000013
:1036C000F4010020034649B1012904D0022908D0A1
:1036D000032910D10AE0586A10600CE010685862A3
:1036E00009E0587A20F00200587204E0587A40F05D
:1036F0000200587200BF00BF0020704770B504463A
:10370000FCF7B4FD05462046FEF76DFC2846FCF7A5
:10371000B1FD2046FFF72EFB002070BD2DE9F843D8
:1037200007460C4615461E46DDE9088922460A2151
:103730003846FFF743FB4346324629463846CDF824
:103740000090FEF72FFCBDE8F88300002DE9F84358
:103750000546FCF78BFD80462846FEF744FC687A58
:1037600020F0010068724046FCF784FDFFF74EFF31
:10377000696A0844A862FCF779FD80462F4F0097DC
:1037800000242AE019E05DF824201168142202EBDD
:10379000C402881A826AAB6AD21A00D108E0826A2F
:1037A000AB6AD21A6FF000439A4200D20CE000BF1D
:1037B0005DF8240000684DF824005DF8240007EB54
:1037C000C40149688842DED100BF2CB15DF82400F5
:1037D0000830611C4DF82100641C002CD2D0184820
:1037E0000068401C164908600846066805F1140187
:1037F0000098FFF778F9022412E006F0030060B9A0
:10380000C4F1010305F1140202EBC301C4F101028A
:103810005DF82200FFF767F900E003E0B608641CDA
:10382000012CEAD900BF687A40F001006872404676
:10383000FCF720FD0020BDE8F8830000F401002023
:10384000FC01002070B50446607A00F0010010B958
:103850004FF0FF3070BDFCF709FD05462046FEF72E
:10386000C2FB2846FCF706FD607A20F0010060727A
:103870000020EFE72DE9FF4F89B0804644460A98C3
:1038800008EB0006464504D24FF0FF36A6EB0800D1
:103890000A906FE10B980078252806D0B44202D236
:1038A0000B9800782070641C61E1002526E00B98DD
:1038B000401C0B900B9800782D2802D145F0100584
:1038C0001CE00B9800782B2802D145F0040515E088
:1038D0000B980078202802D145F008050EE00B98DF
:1038E0000078232802D145F0200507E00B980078E6
:1038F000302802D145F0010500E000E0D7E700BF25
:103900004FF0FF370B98007830380A2804D20BA804
:1039100000F065F907460EE00B9800782A280AD1D6
:103920000B98401C0B900C9880C80C90002F02DA6A
:103930007F4245F010054FF0FF390B9800782E2894
:103940001CD10B98401C0B900B98007830380A283B
:1039500004D20BA800F043F981460AE00B980078E6
:103960002A2806D10B98401C0B900C9850F8049B09
:103970000C90B9F1000F01DA4FF00009002004901B
:103980000B980078682803D00B9800786C2805D134
:103990000B98007804900B98401C0B900A2005901F
:1039A0000B9800786F2875D00CDC632813D004DCEA
:1039B000252870D058286FD18DE064286DD06928F3
:1039C000F9D18FE070286AD0732825D0752878D077
:1039D0007828F0D182E005F0100040B904E0B4424C
:1039E00001D220202070641C781E071EF7DC0C9882
:1039F00010F8041B0C90C8B20790B44201D207988B
:103A00002070641C04E0B44201D220202070641CA9
:103A1000781E071EF7DCAAE00C98006806900C9848
:103A2000001D0C90069808B95CA006900698FFF758
:103A300065FB8346B9F1000F02DDCB4500DDCB46C7
:103A400005F0100048B904E0B44201D220202070F3
:103A5000641C38467F1E5845F6DC002008900BE0B9
:103A6000B44202D2069800782070641C0698401C6C
:103A700006900898401C089008985845F0DB04E030
:103A8000B44201D220202070641C38467F1E584565
:103A9000F6DC6CE01CE015E028E022E0FFE7781C93
:103AA00010B9082745F00105CDE9007902950C9879
:103AB00004C8102331460C902046FEF76BFC0446E8
:103AC00055E012E0B44201D225202070641C4EE083
:103AD000082005901DE045F0400500BF102005902E
:103AE00017E000BF45F0020500BF12E0B44201D26A
:103AF00025202070641C0B98007830B1B44202D2AB
:103B00000B9800782070641C02E00B98401E0B900C
:103B10002DE000BF04986C2807D10C9850F804AB36
:103B20000C9005F00200B8B116E0049868280BD19B
:103B30000C9830F8041B1FFA81FA0C9005F0020073
:103B400050B10FFA8AFA07E00C9850F804AB0C90C9
:103B500005F0020000B100BFCDE9007902955246A0
:103B600031462046059BFEF715FC044600BF0B9826
:103B7000401C0B900B98007800287FF48BAE0A98BD
:103B800038B1B44202D20020207002E0002006F8D2
:103B9000010CA4EB08000DB0BDE8F08F284E554C89
:103BA0004C2900000020704700207047002070471B
:103BB0000020704710B5FCF759FBFEF799FDFFF7A1
:103BC00045FAFFF779FBFFF739FBFEF7B3FCFFF788
:103BD00081FBFFF723FCFFF757FB002010BD0146D8
:103BE000002009E00B685A1C0A601A7800EB800379
:103BF00002EB4302A2F130000A681278303A0A2A36
:103C0000F0D3704710B586B00446012144F2040099
:103C1000FDF70AFB4FF40070ADF8140003208DF897
:103C2000160018208DF8170005A91C48FCF72EFE79
:103C30004FF48060ADF8140004208DF8170005A93A
:103C40001648FCF723FE25208DF8000003208DF890
:103C500001008DF8020001208DF803006846FDF791
:103C600081FA01940020ADF80800ADF80A00ADF823
:103C70000C00ADF810000C20ADF80E0001A90848AA
:103C8000FEF79EF8012240F225510548FEF773F831
:103C900001210348FDF7DEFF06B010BD000801401A
:103CA0000038014010B586B0044601210820FDF718
:103CB000BBFA01218804FDF797FA2A48FDF7D6FFE1
:103CC0004FF48060ADF8100003208DF8120018202A
:103CD0008DF8130004A92448FCF7D8FD4FF40060C8
:103CE000ADF8100004208DF8130004A91E48FCF75D
:103CF000CDFD00940020ADF80400ADF80600ADF84D
:103D00000800ADF80C000C20ADF80A006946154813
:103D1000FEF756F801211348FDF79CFF012240F2FF
:103D200025511048FEF727F827208DF814000220AF
:103D30008DF8150003208DF8160001208DF817006E
:103D400005A8FDF70FFA41F61F4140F2E730FDF7F5
:103D5000B7FC00200549088000210548FDF7E6FC76
:103D600006B010BD00480040000C014014000020C7
:103D70000014004030B595B0054613AB12AA09A94E
:103D8000284600F039FA044614B1204615B030BD7B
:103D90000020149026E0224909689DF8502001EB8C
:103DA000C20113AB11AA486801A900F025FA044624
:103DB0000CB12046EAE709A901A800F0BBFC60B9F4
:103DC0009DF844009DF84810884201DD0220DDE79F
:103DD0009DF85000124988750AE09DF85000401C7B
:103DE000C0B214900E48007D9DF850108842D2DC7D
:103DF00000BF0B48007D9DF85010884201D104207F
:103E0000C4E714A9284600F0D7FA04460CB12046AE
:103E1000BCE79DF85000024948750020B6E7000055
:103E2000880000202DE9F0419AB09C48847D007DF7
:103E3000A04202DC1AB0BDE8F0819849096801EBA4
:103E4000C40106AB07AA486808A900F0D5F908A97B
:103E500093A0FCF787FA002644E09048008B0121EC
:103E6000B1400840D8B122218FA0FCF77BFA304640
:103E700000F028FB89492431471839468BA0FCF70C
:103E800071FA222188A0FCF76DFA304600F01AFB87
:103E900082492431084410A941F8260018E0304630
:103EA00000F010FB7D492431085810A941F8260084
:103EB0007A48C07D30B910A850F826107CA0FCF7D5
:103EC00051FA05E010A850F826107AA0FCF74AFA3B
:103ED0009DF81C00401EB04202D078A0FCF742FAC8
:103EE000701CC6B29DF81C008642B6DB74A0FCF7BD
:103EF00039FA00F039FB6948407D0B280DD2DFE824
:103F000000F0060D151E27323F4E5F728700634991
:103F1000096851F834008047054690E05F4A12680E
:103F200052F8341010988847054688E05B4B1B68B0
:103F300053F83420DDE91001904705467FE0574FE4
:103F40003F6857F8343010A807C89847054676E010
:103F5000DFF848C1DCF800C05CF8347010A80FC866
:103F6000B84705466BE01498DFF830C10090DCF8E4
:103F700000C05CF8347010A80FC8B84705465EE072
:103F8000DDE91401DFF814C1CDE90001DCF800C05F
:103F90005CF8347010A80FC8B84705464FE0DDE95B
:103FA00014121698DFF8F4C0CDE900120290DCF884
:103FB00000C05CF8347010A80FC8B84705463EE052
:103FC000DDE91423DDE91610DFF8D0C0CDE90023C8
:103FD000CDE90210DCF800C05CF8347010A80FC8FE
:103FE000B84705462BE0DDE91523DDE91710CDE9DB
:103FF0000123CDE903101498DFF8A0C00090DCF88D
:1040000000C05CF8347010A80FC8B847054616E029
:10401000DDE91623DDE91810CDE90223CDE904100E
:10402000DDE91401DFF874C0CDE90001DCF800C05F
:104030005CF8347010A80FC8B847054600BF00BF31
:1040400000F050FA9DF8180001280CD11348C07DEB
:1040500020B929461BA0FCF785F907E029461BA0DB
:10406000FCF780F902E018A0FCF77CF90B4890F807
:10407000EC0088B10948D0F8F0000A21B0FBF1F259
:1040800001FB12070548D0F8F000B0FBF1F83A4602
:10409000414611A0FCF766F900BFCBE6880000207E
:1040A0000D0A257328000000256300002573000019
:1040B000256C750030582558000000002C000000C9
:1040C000290000003D256C753B0D0A003D30582548
:1040D000583B0D0A0000000046756E6374696F6EF0
:1040E0002052756E2054696D653A25642E25316421
:1040F0006D730D0A00000000F0B503461546002060
:1041000000220026002455E01F782C2F01D104B98D
:1041100001221F78292F01D01F780FB904B94AE076
:10412000002E34D11F78302F02DB1F78392F11DD9C
:104130001F78612F02DB1F78662F0BDD1F78412F60
:1041400002DB1F78462F05DD1F78582F02D01F781D
:10415000782F0CD102B12EE01F78612F03DB1F787E
:10416000203F0F7001E01F780F70491C1FE01F787F
:10417000222F04D102B11EE00126012417E01F788E
:10418000202F14D01F782C2F11D0FF2613E01F787A
:10419000222F00D1002402B10DE044B11F785C2F22
:1041A00002D15B1C471CF8B21F780F70491C471CDA
:1041B000F8B25B1CA8E700BF00270F702E70F0BD9F
:1041C00010B50446002010700BE020780870641CC5
:1041D000491C1078401C10701078984201DB0120B7
:1041E00010BD2078202802D020780028EDD10020B2
:1041F000087000BFF4E700002DE9FF4F85B080464E
:1042000089460027002004900390012002904FF07F
:10421000000B002544461DE02078202816D005F02C
:104220007F00052812DA0DB945F0800505F07F0002
:10423000042803D120782A2800D00EE0207805F049
:104240007F010DF80100681CC5B202E0852D00D188
:1042500003E0641C20780028DED100BF8DB100206F
:1042600005F07F010DF8010051A1684600F062FAE7
:1042700018B900210898017002E001210898017026
:1042800000254FF0000A444614E0641C0AF10100C6
:1042900000F0FF0A2078202802D020782A2809D1AF
:1042A000204600F0D7F90646282E03D02A2E01D04A
:1042B000CDF810A02078282802D020780028E4D15A
:1042C0004446049810B10498401C04444FF0000A7E
:1042D000002654E0207810B94FF0010A50E0207811
:1042E000282803D116B9781CC7B213E020782928F2
:1042F00008D13EB917B1781EC7B201E04FF0010AEC
:1043000047B93DE02078222804D10EB9012000E011
:104310000020064647B9207820282FD0207889F839
:10432000000009F1010929E020782C2804D101209E
:104330000290681CC5B214E02078202811D02078A3
:1043400028280ED04DB9BBF1050F06DA20780DF8FC
:104350000B000BF1010000F0FF0B0298401CC0B2F3
:104360000290012F0AD10298022807D10298401C1E
:10437000C0B202900398401CC0B20390641CA9E72D
:1043800000BF0398012809D100200DF80B0008A1F7
:10439000684600F0CFF908B9002003900799039808
:1043A0000870002089F80000504609B0BDE8F08F81
:1043B000766F6964000000002DE9F043B5B0054652
:1043C0000F460024002604E000213D488155701C62
:1043D000C6B20A2EF8DB06E06D1C287818B9012059
:1043E00035B0BDE8F08328782828F5D16D1C61E050
:1043F00034AA69462846FFF77FFE064635449DF8F5
:10440000D00020B1012827D0FF284CD149E09DF8E9
:10441000000000B333A9684600F027F906460EB144
:104420000220DDE7204600F04DF825490A31339A95
:104430000A50A1F12400008B0121A14088432049AA
:104440001A39088304211E480155601CC4B20A2C85
:1044500001DD0320C4E726E0684600F087F9401C30
:1044600000F0FF08204600F02DF815490A3100EB56
:1044700001094946684600F06EF911481A38018B67
:104480000120A040014388B20D491A3908830C4825
:1044900000F80480601CC4B20A2C01DD03209FE7F1
:1044A00001E002209CE700BF2878292801D0287865
:1044B00000B900E09CE700BF3C70002090E70000DE
:1044C000A200002002460020002105E0044B5B5CB6
:1044D0000344D8B24B1CD9B29142F7DB70470000BD
:1044E000A200002010B501210D48FDF72EF901288A
:1044F00008D10C48D0F8F0004FF6FF710844094984
:10450000C1F8F0000648FDF71DF90649D1F8F01092
:1045100008440449C1F8F0000846D0F8F00010BD86
:10452000000800408800002010B5044604EBC400D9
:1045300000EB04100122C2EB800081B24FF47A70CC
:10454000FDF7D8FA01200149C87510BD8800002088
:1045500010B50246012000E050430B1EA1F10104FA
:10456000E1B2F9D110BD000010B501210848FDF7F6
:10457000D7F84FF6FF710648FDF765FA00210448A9
:10458000FDF763FA00200349C1F8F00010BD0000F8
:10459000000800408800002070B51D48008800F425
:1045A0000040002833D01A480578002019494855A2
:1045B000194881681748884704461CB91649C868D5
:1045C000804721E0134800F0DDF80546012D00D0BA
:1045D0002C46CCB1012C06D0022C08D0032C0AD0DA
:1045E000042C10D10BE00DA0FBF7BCFE0BE00EA0DD
:1045F000FBF7B8FE07E00FA0FBF7B4FE03E010A046
:10460000FBF7B0FE00BF00BF00200149088070BD6D
:104610002C000020221A002088000020BAAFCAFD1A
:10462000B4EDCEF3210D0A00B2CECAFDB4EDCEF347
:10463000210D0A00B2CECAFDCCABB6E0210D0A00B6
:10464000CEB4D5D2B5BDC6A5C5E4B5C4BAAFCAFD12
:10465000210D0A000146491C00E0491C0878202869
:1046600001D10029F9D1087870472DE9F0430746B8
:104670000E4600254FF00A083C46002030601FE03F
:104680002078392802DC207830280ADA2078462879
:1046900002DC2078412804DA2078582809D1012D3D
:1046A00007D12078412801DB4FF01008681CC5B203
:1046B00005E0207800B904E00120BDE8F083641C27
:1046C000DEE700BF3C46B8F1100F0FD1032D01DA31
:1046D0000220F2E72078302806D16078582803D1EC
:1046E000A41CA81EC5B204E00320E6E70DB904200F
:1046F000E3E71BE00DB1681EC5B22078392806DC5F
:104700002078302803DB2078A0F1300902E02078FF
:10471000A0F1370929464046FFF71AFF316809FB27
:1047200000103060641C207800B900E0E2E700BFB0
:104730000020C2E702460AE010780B78984201D0C8
:1047400001207047107800B902E0521C491CF3E7C1
:1047500000BF0020F5E706E002780A70027802B98F
:1047600002E0401C491CF7E700BF704701460020EB
:1047700005E00A7802B903E0421CD0B2491CF8E710
:1047800000BF704710B58CB004461E230BAA03A9C6
:104790002046FFF715FD0090009810B101200CB0E5
:1047A00010BD9DF82C00044400200B900EE0404802
:1047B0009DF82C2050F8221003A8FFF7BBFF00B98A
:1047C00008E09DF82C00401CC0B20B909DF82C0016
:1047D0000728ECD300BF9DF82C00072863D2DFE840
:1047E00000F004053C5E6564630000BF31A0FBF788
:1047F000B9FD31A0FBF7B6FD3FA0FBF7B3FD4EA01E
:10480000FBF7B0FD5CA0FBF7ADFD6BA0FBF7AAFDCD
:1048100079A0FBF7A7FD86A0FBF7A4FD8BA0FBF713
:10482000A1FD90A0FBF79EFD94A0FBF79BFD99A036
:10483000FBF798FD9EA0FBF795FDA4A0FBF792FD6A
:10484000B0A0FBF78FFDBDA0FBF78CFDC8A0FBF768
:1048500089FDD4A0FBF786FD9AE216A0FBF782FD46
:10486000E0A0FBF77FFD00200B900EE0ED48006814
:104870009DF82C2000EBC2004168EBA0FBF772FD15
:104880009DF82C00401CC0B20B90E648007D9DF8BE
:104890002C108842EADC07A0FBF764FD78E205A053
:1048A000FBF760FDC4E171E245E219E2ECE10000D2
:1048B000440000200D0A00002D2D2D2D2D2D2D2D15
:1048C0002D2D2D2D2D2D2D2D2D2D2D2D2D2D2D2D18
:1048D00055534D4152542056332E312D2D2D2D2D13
:1048E0002D2D2D2D2D2D2D2D2D2D2D2D2D2D2D2DF8
:1048F0002D2D2D200D0A00002020202055534D4144
:104900005254CAC7D3C9414C49454E54454BBFAA1E
:10491000B7A2B5C4D2BBB8F6C1E9C7C9B5C4B4AE75
:10492000BFDAB5F7CAD4BBA5BDBBD7E9BCFE2CCD59
:10493000A8B9FD200D0A0000CBFC2CC4E3BFC9D2EE
:10494000D4CDA8B9FDB4AEBFDAD6FACAD6B5F7D37E
:10495000C3B3CCD0F2C0EFC3E6B5C4C8CEBACEBAAA
:10496000AFCAFD2CB2A2D6B4D0D02ED2F2B4CB2C8A
:10497000C4E3BFC90D0A0000D2D4CBE6D2E2B8FC32
:10498000B8C4BAAFCAFDB5C4CAE4C8EBB2CECAFD5A
:1049900028D6A7B3D6CAFDD7D62831302F3136BD99
:1049A000F8D6C629A1A2D7D6B7FBB4AEA1A2BAAF9A
:1049B000CAFDC8EB0D0A0000BFDAB5D8D6B7B5C836
:1049C000D7F7CEAAB2CECAFD292CB5A5B8F6BAAF94
:1049D000CAFDD7EEB6E0D6A7B3D63130B8F6CAE4F2
:1049E000C8EBB2CECAFD2CB2A2D6A7B3D6BAAFCA14
:1049F000FDB7B5200D0A0000BBD8D6B5CFD4CABECE
:104A00002ED0C2D4F6B2CECAFDCFD4CABEBDF8D61F
:104A1000C6C9E8D6C3B9A6C4DC2CD0C2D4F6BDF84A
:104A2000D6C6D7AABBBBB9A6C4DC2E0D0A000000AF
:104A3000BCBCCAF5D6A7B3D63A7777772E6F706528
:104A40006E6564762E636F6D0D0A000055534D41FF
:104A50005254D3D037B8F6CFB5CDB3C3FCC1EE3A7C
:104A60000D0A00003F3A202020202020BBF1C8A1E1
:104A7000B0EFD6FAD0C5CFA20D0A000068656C7001
:104A80003A202020BBF1C8A1B0EFD6FAD0C5CFA202
:104A90000D0A00006C6973743A202020BFC9D3C38B
:104AA000B5C4BAAFCAFDC1D0B1ED0D0A0A0000000D
:104AB00069643A2020202020BFC9D3C3BAAFCAFD01
:104AC000B5C44944C1D0B1ED0D0A0A006865783A11
:104AD00020202020B2CECAFD3136BDF8D6C6CFD4B4
:104AE000CABE2CBAF3B8FABFD5B8F12BCAFDD7D6D7
:104AF000BCB4D6B4D0D0BDF8D6C6D7AABBBB0D0ABD
:104B00000A0000006465633A20202020B2CECAFD6E
:104B10003130BDF8D6C6CFD4CABE2CBAF3B8FABF6E
:104B2000D5B8F12BCAFDD7D6BCB4D6B4D0D0BDF819
:104B3000D6C6D7AABBBB0D0A0A00000072756E74F8
:104B4000696D653A312CBFAAC6F4BAAFCAFDD4CBA1
:104B5000D0D0BCC6CAB13B302CB9D8B1D5BAAFCAD7
:104B6000FDD4CBD0D0BCC6CAB13B0D0A0A000000B0
:104B7000C7EBB0B4D5D5B3CCD0F2B1E0D0B4B8F176
:104B8000CABDCAE4C8EBBAAFCAFDC3FBBCB0B2CE63
:104B9000CAFDB2A2D2D4BBD8B3B5BCFCBDE1CAF841
:104BA0002E0D0A002D2D2D2D2D2D2D2D2D2D2D2DA4
:104BB0002D2D2D2D2D2D2D2D2D2D2D2D2D2D414CF2
:104BC00049454E54454B2D2D2D2D2D2D2D2D2D2D63
:104BD0002D2D2D2D2D2D2D2D2D2D2D2D2D2D2D2012
:104BE0000D0A00002D2D2D2D2D2D2D2D2D2D2D2D92
:104BF0002D2D2D2D2D2D2D2D2D2D2D2D2DBAAFCA39
:104C0000FDC7E5B5A52D2D2D2D2D2D2D2D2D2D2DB2
:104C10002D2D2D2D2D2D2D2D2D2D2D2D2D2D2D2DC4
:104C2000200D0A008800002025730D0A00000000F6
:104C300059A0FBF797FB00200B901AE06649096822
:104C40009DF82C2001EBC20101AB02AA486803A920
:104C5000FFF7D2FA604800689DF82C1050F8312018
:104C600003A95EA0FBF77EFB9DF82C00401CC0B2A0
:104C70000B905948007D9DF82C108842DEDCAFF285
:104C8000CC30FBF76FFB83E0AFF2D830FBF76AFB69
:104C90000BAA03A92046FFF72FFA9DF82C00C8B9EC
:104CA000694603A8FFF7E1FC0B909DF82C0020B9A2
:104CB0004FA00099FBF756FB0EE09DF82C0004284E
:104CC00001D002206BE54DA0FBF74CFB01204249CF
:104CD000C87501E0022062E547A0FBF743FB57E0FF
:104CE00045A0FBF73FFB0BAA03A92046FFF704FAF8
:104CF0009DF82C00C8B9694603A8FFF7B6FC0B90D5
:104D00009DF82C0020B942A00099FBF72BFB0EE088
:104D10009DF82C00042801D0022040E53FA0FBF7BD
:104D200021FB00202C49C87501E0022037E532A0A4
:104D3000FBF718FB2CE030A0FBF714FB0BAA03A930
:104D40002046FFF7D9F99DF82C00C8B9694603A899
:104D5000FFF78BFC0B909DF82C0078B91E4900984A
:104D600081F8EC00084690F8EC0018B130A0FBF791
:104D7000F9FA07E035A0FBF7F5FA03E002200EE5AB
:104D800002200CE51CA0FBF7EDFA01E0012006E58E
:104D900000BF002003E500002D2D2D2D2D2D2D2DE4
:104DA0002D2D2D2D2D2D2D2D2D2D2D2D2D2D2D2D33
:104DB0002DBAAFCAFD204944202D2D2D2D2D2D2D8E
:104DC0002D2D2D2D2D2D2D2D2D2D2D2D2D2D2D2D13
:104DD0002D2D2D2D200D0A0088000020257320691F
:104DE000642069733A0D0A3058253038580D0A008E
:104DF0004845583A305825580D0A00003136BDF85C
:104E0000D6C6B2CECAFDCFD4CABE210D0A0000005C
:104E10004445433A256C750D0A0000003130BDF859
:104E2000D6C6B2CECAFDCFD4CABE210D0A0000003C
:104E300052756E2054696D652043616C63756C61B9
:104E400074696F6E204F4E0D0A00000052756E207F
:104E500054696D652043616C63756C6174696F6E34
:104E6000204F46460D0A00000160704790EA010F8E
:104E700048BF81F0004100F12482421A3CBF801AF1
:104E800089184FEAD0524FF07F4C1CEA410FA2EB39
:104E9000D15318BF9CEA026F00F03B804FF0004CEA
:104EA0004CEA00204CEA012121FA03FC10EB0C0C27
:104EB0001ED202F1FF325FEA1C2040EBC25038BF25
:104EC00070471CF07F0F4FEA400C18BFBCF17F4FBA
:104ED00038BF7047C3F12003994008BF20F001009C
:104EE000BCF17F4F38BF7047A0F1C04000F0DDB982
:104EF0004FEA3C00000A40EBC25028BF1CF0FF0FF5
:104F00004FEA400CE6D018BFBCF17F4F38BF704766
:104F1000EAE79CEA026F05D010EA5C0F08BF00F0D8
:104F20000040704710B500F07AF900BF64FBBE3E48
:104F30004FF47F0C1CEAD0121EBF1CEAD11392EA78
:104F40000C0F93EA0C0F00F0858090EA010F48BF28
:104F500042F4807240F4000C41F400002CF07F41D8
:104F600020F07F4000B58142A2EB03020FF2081C43
:104F7000ACEB504EC0F100009EF800E04FEA4E0E40
:104F800000FB0EFC38BF49004FEA2C1C02F5FA0268
:104F90000CFB0EF34FEACE1E4FEA112C4FEAC12153
:104FA0000EEB635E42EB22420EFB0CFC4FEA1C53FD
:104FB00000FB03114FEA112C4FEA01310EFB0CFCF0
:104FC0004FEADC4C00FB0C11C14228BF09184CEB26
:104FD00003335DF804EB10EB410143EBC250B2F533
:104FE0007C0F38BF704729D512F0F00F1CBF00F1BD
:104FF000C04000F00040704700818283848586872E
:1050000088898B8C8D8E8F919293959697999A9C87
:105010009D9FA0A2A3A5A7A8AAACAEB0B2B3B5B7F6
:10502000B9BCBEC0C2C5C7C9CCCED1D4D7D9DCDFCC
:10503000E2E6E9ECF0F3F7FAFE0000004FEA400C7C
:105040000CF1807CBCF17E4F28BF7047B0F1C040AE
:1050500000F02BB990EA010F0CEAD11348BF42F4DB
:105060008072624538BF634507D213F47F0F16D0B4
:1050700080EA010000F00040704710B500F0CFF862
:10508000097EFC3E00F005B880EA010000F0004017
:10509000704780EA010000F0004000F006B912F409
:1050A0007F0F04BF0248704780EA010000F0FDB89E
:1050B0000000C07FC10DD1F19E0206DB4FEA002344
:1050C00043F0004323FA02F07047004207D54FEA4D
:1050D0004001B1F1FE4F02D24FF00000704710B511
:1050E00000F09DF849922480002070476FEA20006C
:1050F00070470000B0FA80F310FA03F2C3F19D0389
:105100000AD0D90501EB1220530638BF704700F1D1
:10511000010008BF20F00100704700004FF47F0C31
:105120001CEAD0121EBF1CEAD11392EA0C0F93EABC
:105130000C0F00F0478090EA010F48BF42F48072E4
:105140004FF0004C4CEA00204CEA012102EB030234
:10515000A0FB0113A2F50002002918BF43F00103D0
:105160005B0028BF4FEA330342EB22425FEA132C75
:105170004CEBC2502EBFBCEB436FB2F57C0F7047B7
:105180004FEA036CBCF1004F08BF20F00100B2F5FC
:105190007C0F38BF70470BD582F0FF0212F5803FBD
:1051A000C8BF704700F1C040D8BF00F00040704752
:1051B00000F5000C5FEA4C0C48BF7047B0F1C040EE
:1051C00000F073B890EA010F0CEAD11348BF42F423
:1051D0008072624538BF634504D280EA010000F066
:1051E0000040704710B500F01AF800BF8900013E7A
:1051F00000F007B800F009B85FEA410C5FEA1C6CE8
:1052000008D080EA010000F050B85FEA400C5FEA85
:105210001C6CF6D14FF00040A0F5800070470EF1F5
:10522000020E2EF0030E5EF8044B244204D44FEA23
:105230004102B2F17F4F11D84FEA4003B3F17F4FE3
:105240000CD80ED14FEAD07CB2F17F4F0CEB4C0C56
:105250000CF1020C08BF4CEBD17C04E04FF0080CC1
:1052600001E04FEAD17C0CEB4C0324FA03F404F088
:105270000704B4F1040C06D20EEB840CBDE8104018
:105280004CF0010C6047DFE80CF0070802024FF019
:105290000040A0F5800010BD0846420018BFD2F1C2
:1052A000807288BF00F0004010BDFF2141EAD0505D
:1052B000C005704790EA010F48BF81F000413FF5FB
:1052C000DCAD421A04D882F00042A0EB0200114487
:1052D0004FEAD0524FF07F4C1CEA410FA2EBD15362
:1052E00018BF9CEA026F4AD04FF0004C4CEA0020F5
:1052F0004CEA012121FA03FCB0EB0C0C0FD412F0A4
:10530000FE0F36D05FEA4C001DD5001240EBC250B4
:1053100038BF70471CF03F0F18BF70470BE0A2F179
:1053200001025FEA1C2040EBC25038BF70471CF0FE
:105330007F0F18BF7047C3F12003994014BF401E70
:1053400020F00100704780084FEA122308BF704721
:10535000B0FA80FCA2EB0C02CCF1280C60FA0CF045
:1053600093EA122F04BF00EBC25070474FEAC3709C
:105370007047130A5FEADC1008BF7047F6E79CEA43
:10538000026F04D010EA5C0F08BF0020704710B510
:10539000FFF745FF40DFF63E81F000407047000018
:1053A000C012000080250000004B000000960000A5
:1053B00000E1000000C201000084030000080700B3
:1053C00000100E00000001000200010003000100B7
:1053D00002000100040001000200010003000100BE
:1053E00002000100050001000200010003000100AD
:1053F000020001000400010002000100030001009E
:10540000020001000600010002000100030001008B
:10541000020001000400010002000100030001007D
:10542000020001000500010002000100030001006C
:10543000020001000400010002000100030001005D
:10544000020001000700010002000100030001004A
:10545000020001000400010002000100030001003D
:10546000020001000500010002000100030001002C
:10547000020001000400010002000100030001001D
:10548000020001000600010002000100030001000B
:1054900002000100040001000200010003000100FD
:1054A00002000100050001000200010003000100EC
:1054B00002000100040001000200010003000100DD
:1054C0000200010030313233343536373839616209
:1054D00063646566003031323334353637383941EC
:1054E000424344454600303132333435363738395B
:1054F0004142434445464030580030313233343520
:10550000363738396162636465664030780004007C
:105510000008000000000000000200010000100070
:105520003F000000646563006964000072756E747A
:10553000696D650068656C70000000006C697374CB
:105540000000000068657800753820536B7954724C
:10555000615F4366675F5072742875333220626101
:1055600075645F6964290000753820536B79547243
:10557000615F4366675F54702875333220776964D2
:1055800074682900766F69642077726974655F6159
:105590006464722875333220616464722C7533320E
:1055A0002076616C29000000753820536B795472A5
:1055B000615F4366675F5261746528753820467283
:1055C0006570290075333220726561645F616464BF
:1055D000722875333220616464722900B13B00087F
:1055E000A93B0008A53B0008AD3B00080C5600088D
:1055F00000000020100200006C0100089C5600080A
:105600001002002058220000C80100081184A24A9C
:105610000400091E01020304060708092926692A55
:1056200025020406081320551B0834041A3C041AEA
:1056300028041A44041A24041A2C04132D251B08C8
:10564000C40813694E1B0884081395141B084808E6
:105650001335151B0868081AF5101AA8081A6047B0
:105660001329451408753D1408253E1B08990C1A8A
:10567000056D01FC29FD13A0012A200432783202B5
:105680001AB00C2904322032051AC00C2904323019
:0C569000320A1AD00C290402372C00004A
:0400000508000131BD
:00000001FF
